[2024-07-31 15:57:34.770] [fix] [debug] Admin OUT 8=FIX.4.4|9=142|35=A|34=1|49=TExecSenderCompID_Masked|52=20240731-07:57:34.000|56=FXCM|57=MINIDEMO|1=Account_Masked|98=0|108=60|141=Y|553=D161620797|554=1234|10=026|
[2024-07-31 15:57:34.789] [fix] [debug] Admin OUT 8=FIX.4.4|9=142|35=A|34=1|49=MDataSenderCompID_Masked|52=20240731-07:57:34.000|56=FXCM|57=MINIDEMO|1=Account_Masked|98=0|108=60|141=Y|553=D161620797|554=1234|10=008|
[2024-07-31 15:57:35.127] [fix] [debug] Admin IN  8=FIX.4.4|9=132|35=A|34=1|49=TExecSenderCompID_Masked|50=MINIDEMO|52=20240731-07:57:35.092|56=D161620797_client1|1=Account_Masked|98=0|108=60|141=Y|10=126|
[2024-07-31 15:57:35.250] [fix] [debug] Admin IN  8=FIX.4.4|9=135|35=A|34=1|49=TExecSenderCompID_Masked|50=MINIDEMO|52=20240731-07:57:35.190|56=MD_D161620797_client1|1=Account_Masked|98=0|108=60|141=Y|10=112|
[2024-07-31 15:57:35.256] [fix] [debug] App   OUT 8=FIX.4.4|9=201|35=D|34=2|49=TExecSenderCompID_Masked|52=20240731-07:57:35.000|56=FXCM|57=MINIDEMO|1=Account_Masked|11=coid_1722412655252_1|21=1|38=5000|40=2|44=0.69|54=2|55=AUD/USD|59=1|60=20240731-07:57:35|336=FXCM|10=245|
[2024-07-31 15:57:35.624] [fix] [debug] App   IN  8=FIX.4.4|9=490|35=8|34=2|49=TExecSenderCompID_Masked|50=MINIDEMO|52=20240731-07:57:35.494|56=D161620797_client1|1=Account_Masked|6=0.69|11=coid_1722412655252_1|14=0|15=AUD|17=1722325094595|31=0.69|32=0|37=321066339|38=5000|39=0|40=2|44=0.69|54=2|55=AUD/USD|59=1|60=20240731-07:57:35.491|99=0|150=0|151=5000|211=0|336=FXCM|453=1|448=FXCM ID|447=D|452=3|802=4|523=1613144|803=10|523=d161620797|803=2|523=DemoLastName|803=22|523=32|803=26|625=MINIDEMO|835=0|836=0|1094=0|9041=144083397|9050=LE|9051=W|9061=0|10=076|
[2024-07-31 15:57:35.632] [fix] [debug] App   OUT 8=FIX.4.4|9=221|35=F|34=3|49=TExecSenderCompID_Masked|52=20240731-07:57:35.000|56=FXCM|57=MINIDEMO|1=Account_Masked|11=coid_1722412655629_2|37=321066339|38=5000|41=coid_1722412655252_1|54=2|55=AUD/USD|60=20240731-07:57:35|9041=144083397|10=046|
[2024-07-31 15:57:35.959] [fix] [debug] App   IN  8=FIX.4.4|9=502|35=8|34=3|49=TExecSenderCompID_Masked|50=MINIDEMO|52=20240731-07:57:35.925|56=D161620797_client1|1=Account_Masked|6=0.69|11=coid_1722412655629_2|14=0|15=AUD|17=3|31=0.69|32=0|37=321066339|38=5000|39=6|40=2|41=coid_1722412655252_1|44=0.69|54=2|55=AUD/USD|59=1|60=20240731-07:57:35.924|99=0|150=6|151=5000|211=0|336=FXCM|453=1|448=FXCM ID|447=D|452=3|802=4|523=1613144|803=10|523=d161620797|803=2|523=DemoLastName|803=22|523=32|803=26|625=MINIDEMO|835=0|836=0|1094=0|9041=144083397|9050=LE|9051=S|9061=0|10=178|
[2024-07-31 15:57:35.964] [fix] [debug] App   IN  8=FIX.4.4|9=512|35=8|34=4|49=TExecSenderCompID_Masked|50=MINIDEMO|52=20240731-07:57:35.926|56=D161620797_client1|1=Account_Masked|6=0.69|11=coid_1722412655629_2|14=0|15=AUD|17=4|31=0.69|32=0|37=321066339|38=5000|39=4|40=2|41=coid_1722412655252_1|44=0.69|54=2|55=AUD/USD|58=Cancelled|59=1|60=20240731-07:57:35.924|99=0|150=4|151=0|211=0|336=FXCM|453=1|448=FXCM ID|447=D|452=3|802=4|523=1613144|803=10|523=d161620797|803=2|523=DemoLastName|803=22|523=32|803=26|625=MINIDEMO|835=0|836=0|1094=0|9041=144083397|9050=LE|9051=C|9061=0|10=051|
[2024-07-31 15:57:35.967] [fix] [debug] Admin OUT 8=FIX.4.4|9=100|35=5|34=4|49=TExecSenderCompID_Masked|52=20240731-07:57:35.000|56=FXCM|57=MINIDEMO|1=Account_Masked|10=039|
[2024-07-31 15:57:35.968] [fix] [debug] Admin OUT 8=FIX.4.4|9=100|35=5|34=2|49=MDataSenderCompID_Masked|52=20240731-07:57:35.000|56=FXCM|57=MINIDEMO|1=Account_Masked|10=019|
[2024-07-31 15:57:36.223] [fix] [debug] Admin IN  8=FIX.4.4|9=114|35=5|34=5|49=TExecSenderCompID_Masked|50=MINIDEMO|52=20240731-07:57:36.187|56=D161620797_client1|1=Account_Masked|10=051|
[2024-07-31 15:57:36.225] [fix] [debug] Admin OUT 8=FIX.4.4|9=100|35=5|34=5|49=TExecSenderCompID_Masked|52=20240731-07:57:36.000|56=FXCM|57=MINIDEMO|1=Account_Masked|10=041|
[2024-07-31 15:57:36.233] [fix] [debug] Admin OUT 8=FIX.4.4|9=142|35=A|34=1|49=TExecSenderCompID_Masked|52=20240731-07:57:36.000|56=FXCM|57=MINIDEMO|1=Account_Masked|98=0|108=60|141=Y|553=D161620797|554=1234|10=028|
[2024-07-31 15:57:36.269] [fix] [debug] Admin IN  8=FIX.4.4|9=117|35=5|34=2|49=TExecSenderCompID_Masked|50=MINIDEMO|52=20240731-07:57:36.215|56=MD_D161620797_client1|1=Account_Masked|10=027|
[2024-07-31 15:57:36.270] [fix] [debug] Admin OUT 8=FIX.4.4|9=100|35=5|34=3|49=MDataSenderCompID_Masked|52=20240731-07:57:36.000|56=FXCM|57=MINIDEMO|1=Account_Masked|10=021|
[2024-07-31 15:57:36.279] [fix] [debug] Admin OUT 8=FIX.4.4|9=142|35=A|34=1|49=MDataSenderCompID_Masked|52=20240731-07:57:36.000|56=FXCM|57=MINIDEMO|1=Account_Masked|98=0|108=60|141=Y|553=D161620797|554=1234|10=010|
