[2024-07-31 15:58:09.213] [fix] [debug] Admin OUT 8=FIX.4.4|9=142|35=A|34=1|49=MDataSenderCompID_Masked|52=20240731-07:58:09.000|56=FXCM|57=MINIDEMO|1=Account_Masked|98=0|108=60|141=Y|553=D161620797|554=1234|10=011|
[2024-07-31 15:58:09.218] [fix] [debug] Admin OUT 8=FIX.4.4|9=142|35=A|34=1|49=TExecSenderCompID_Masked|52=20240731-07:58:09.000|56=FXCM|57=MINIDEMO|1=Account_Masked|98=0|108=60|141=Y|553=D161620797|554=1234|10=029|
[2024-07-31 15:58:09.599] [fix] [debug] Admin IN  8=FIX.4.4|9=132|35=A|34=1|49=TExecSenderCompID_Masked|50=MINIDEMO|52=20240731-07:58:09.565|56=D161620797_client1|1=Account_Masked|98=0|108=60|141=Y|10=133|
[2024-07-31 15:58:09.962] [fix] [debug] Admin IN  8=FIX.4.4|9=135|35=A|34=1|49=TExecSenderCompID_Masked|50=MINIDEMO|52=20240731-07:58:09.835|56=MD_D161620797_client1|1=Account_Masked|98=0|108=60|141=Y|10=120|
[2024-07-31 15:58:09.970] [fix] [debug] App   OUT 8=FIX.4.4|9=201|35=D|34=2|49=TExecSenderCompID_Masked|52=20240731-07:58:09.000|56=FXCM|57=MINIDEMO|1=Account_Masked|11=coid_1722412689963_1|21=1|38=8000|40=2|44=0.64|54=1|55=AUD/USD|59=1|60=20240731-07:58:09|336=FXCM|10=006|
[2024-07-31 15:58:10.454] [fix] [debug] App   IN  8=FIX.4.4|9=490|35=8|34=2|49=TExecSenderCompID_Masked|50=MINIDEMO|52=20240731-07:58:10.399|56=D161620797_client1|1=Account_Masked|6=0.64|11=coid_1722412689963_1|14=0|15=AUD|17=1722325094600|31=0.64|32=0|37=321066340|38=8000|39=0|40=2|44=0.64|54=1|55=AUD/USD|59=1|60=20240731-07:58:10.396|99=0|150=0|151=8000|211=0|336=FXCM|453=1|448=FXCM ID|447=D|452=3|802=4|523=1613144|803=10|523=d161620797|803=2|523=DemoLastName|803=22|523=32|803=26|625=MINIDEMO|835=0|836=0|1094=0|9041=144083398|9050=LE|9051=W|9061=0|10=058|
[2024-07-31 15:58:10.462] [fix] [debug] App   OUT 8=FIX.4.4|9=244|35=G|34=3|49=TExecSenderCompID_Masked|52=20240731-07:58:10.000|56=FXCM|57=MINIDEMO|1=Account_Masked|11=coid_1722412690459_2|21=1|37=321066340|38=6000|40=2|41=coid_1722412689963_1|44=0.64|54=1|55=AUD/USD|59=1|60=20240731-07:58:10|9041=144083398|10=034|
[2024-07-31 15:58:10.953] [fix] [debug] App   IN  8=FIX.4.4|9=502|35=8|34=3|49=TExecSenderCompID_Masked|50=MINIDEMO|52=20240731-07:58:10.912|56=D161620797_client1|1=Account_Masked|6=0.64|11=coid_1722412690459_2|14=0|15=AUD|17=3|31=0.64|32=0|37=321066340|38=6000|39=5|40=2|41=coid_1722412689963_1|44=0.64|54=1|55=AUD/USD|59=1|60=20240731-07:58:10.909|99=0|150=5|151=6000|211=0|336=FXCM|453=1|448=FXCM ID|447=D|452=3|802=4|523=1613144|803=10|523=d161620797|803=2|523=DemoLastName|803=22|523=32|803=26|625=MINIDEMO|835=0|836=0|1094=0|9041=144083398|9050=LE|9051=W|9061=0|10=162|
[2024-07-31 15:58:10.958] [fix] [debug] App   OUT 8=FIX.4.4|9=244|35=G|34=4|49=TExecSenderCompID_Masked|52=20240731-07:58:10.000|56=FXCM|57=MINIDEMO|1=Account_Masked|11=coid_1722412690955_3|21=1|37=321066340|38=4000|40=2|41=coid_1722412689963_1|44=0.64|54=1|55=AUD/USD|59=1|60=20240731-07:58:10|9041=144083398|10=035|
[2024-07-31 15:58:11.274] [fix] [debug] App   IN  8=FIX.4.4|9=502|35=8|34=4|49=TExecSenderCompID_Masked|50=MINIDEMO|52=20240731-07:58:11.240|56=D161620797_client1|1=Account_Masked|6=0.64|11=coid_1722412690955_3|14=0|15=AUD|17=4|31=0.64|32=0|37=321066340|38=4000|39=5|40=2|41=coid_1722412690459_2|44=0.64|54=1|55=AUD/USD|59=1|60=20240731-07:58:11.238|99=0|150=5|151=4000|211=0|336=FXCM|453=1|448=FXCM ID|447=D|452=3|802=4|523=1613144|803=10|523=d161620797|803=2|523=DemoLastName|803=22|523=32|803=26|625=MINIDEMO|835=0|836=0|1094=0|9041=144083398|9050=LE|9051=W|9061=0|10=146|
[2024-07-31 15:58:11.278] [fix] [debug] App   OUT 8=FIX.4.4|9=221|35=F|34=5|49=TExecSenderCompID_Masked|52=20240731-07:58:11.000|56=FXCM|57=MINIDEMO|1=Account_Masked|11=coid_1722412691276_4|37=321066340|38=4000|41=coid_1722412690955_3|54=1|55=AUD/USD|60=20240731-07:58:11|9041=144083398|10=040|
[2024-07-31 15:58:11.669] [fix] [debug] App   IN  8=FIX.4.4|9=502|35=8|34=5|49=TExecSenderCompID_Masked|50=MINIDEMO|52=20240731-07:58:11.523|56=D161620797_client1|1=Account_Masked|6=0.64|11=coid_1722412691276_4|14=0|15=AUD|17=5|31=0.64|32=0|37=321066340|38=4000|39=6|40=2|41=coid_1722412690955_3|44=0.64|54=1|55=AUD/USD|59=1|60=20240731-07:58:11.522|99=0|150=6|151=4000|211=0|336=FXCM|453=1|448=FXCM ID|447=D|452=3|802=4|523=1613144|803=10|523=d161620797|803=2|523=DemoLastName|803=22|523=32|803=26|625=MINIDEMO|835=0|836=0|1094=0|9041=144083398|9050=LE|9051=S|9061=0|10=146|
[2024-07-31 15:58:11.674] [fix] [debug] App   IN  8=FIX.4.4|9=512|35=8|34=6|49=TExecSenderCompID_Masked|50=MINIDEMO|52=20240731-07:58:11.524|56=D161620797_client1|1=Account_Masked|6=0.64|11=coid_1722412691276_4|14=0|15=AUD|17=6|31=0.64|32=0|37=321066340|38=4000|39=4|40=2|41=coid_1722412690955_3|44=0.64|54=1|55=AUD/USD|58=Cancelled|59=1|60=20240731-07:58:11.522|99=0|150=4|151=0|211=0|336=FXCM|453=1|448=FXCM ID|447=D|452=3|802=4|523=1613144|803=10|523=d161620797|803=2|523=DemoLastName|803=22|523=32|803=26|625=MINIDEMO|835=0|836=0|1094=0|9041=144083398|9050=LE|9051=C|9061=0|10=020|
[2024-07-31 15:58:11.677] [fix] [debug] Admin OUT 8=FIX.4.4|9=100|35=5|34=6|49=TExecSenderCompID_Masked|52=20240731-07:58:11.000|56=FXCM|57=MINIDEMO|1=Account_Masked|10=036|
[2024-07-31 15:58:11.678] [fix] [debug] Admin OUT 8=FIX.4.4|9=100|35=5|34=2|49=MDataSenderCompID_Masked|52=20240731-07:58:11.000|56=FXCM|57=MINIDEMO|1=Account_Masked|10=014|
[2024-07-31 15:58:12.076] [fix] [debug] Admin IN  8=FIX.4.4|9=117|35=5|34=2|49=TExecSenderCompID_Masked|50=MINIDEMO|52=20240731-07:58:11.959|56=MD_D161620797_client1|1=Account_Masked|10=036|
[2024-07-31 15:58:12.077] [fix] [debug] Admin OUT 8=FIX.4.4|9=100|35=5|34=3|49=MDataSenderCompID_Masked|52=20240731-07:58:12.000|56=FXCM|57=MINIDEMO|1=Account_Masked|10=016|
[2024-07-31 15:58:12.089] [fix] [debug] Admin OUT 8=FIX.4.4|9=142|35=A|34=1|49=MDataSenderCompID_Masked|52=20240731-07:58:12.000|56=FXCM|57=MINIDEMO|1=Account_Masked|98=0|108=60|141=Y|553=D161620797|554=1234|10=005|
[2024-07-31 15:58:12.096] [fix] [debug] Admin IN  8=FIX.4.4|9=114|35=5|34=7|49=TExecSenderCompID_Masked|50=MINIDEMO|52=20240731-07:58:11.908|56=D161620797_client1|1=Account_Masked|10=048|
[2024-07-31 15:58:12.097] [fix] [debug] Admin OUT 8=FIX.4.4|9=100|35=5|34=7|49=TExecSenderCompID_Masked|52=20240731-07:58:12.000|56=FXCM|57=MINIDEMO|1=Account_Masked|10=038|
