[2024-07-31 15:54:18.623] [fix] [debug] Admin OUT 8=FIX.4.4|9=142|35=A|34=1|49=TExecSenderCompID_Masked|52=20240731-07:54:18.000|56=FXCM|57=MINIDEMO|1=Account_Masked|98=0|108=60|141=Y|553=D161620797|554=1234|10=025|
[2024-07-31 15:54:18.639] [fix] [debug] Admin OUT 8=FIX.4.4|9=142|35=A|34=1|49=MDataSenderCompID_Masked|52=20240731-07:54:18.000|56=FXCM|57=MINIDEMO|1=Account_Masked|98=0|108=60|141=Y|553=D161620797|554=1234|10=007|
[2024-07-31 15:54:19.088] [fix] [debug] Admin IN  8=FIX.4.4|9=132|35=A|34=1|49=TExecSenderCompID_Masked|50=MINIDEMO|52=20240731-07:54:18.998|56=D161620797_client1|1=Account_Masked|98=0|108=60|141=Y|10=139|
[2024-07-31 15:54:19.121] [fix] [debug] Admin IN  8=FIX.4.4|9=135|35=A|34=1|49=TExecSenderCompID_Masked|50=MINIDEMO|52=20240731-07:54:19.060|56=MD_D161620797_client1|1=Account_Masked|98=0|108=60|141=Y|10=107|
[2024-07-31 15:54:19.128] [fix] [debug] App   OUT 8=FIX.4.4|9=216|35=AN|34=2|49=TExecSenderCompID_Masked|52=20240731-07:54:19.000|56=FXCM|57=MINIDEMO|1=Account_Masked|60=20240731-07:54:19|263=1|336=FXCM|453=1|448=FXCM ID|447=D|452=3|802=1|523=01613144|803=10|581=6|710=1|715=|724=0|10=073|
[2024-07-31 15:54:19.131] [fix] [debug] App   OUT 8=FIX.4.4|9=216|35=AN|34=3|49=TExecSenderCompID_Masked|52=20240731-07:54:19.000|56=FXCM|57=MINIDEMO|1=Account_Masked|60=20240731-07:54:19|263=1|336=FXCM|453=1|448=FXCM ID|447=D|452=3|802=1|523=01613144|803=10|581=6|710=2|715=|724=1|10=076|
[2024-07-31 15:54:19.408] [fix] [debug] App   IN  8=FIX.4.4|9=229|35=AO|34=2|49=TExecSenderCompID_Masked|50=MINIDEMO|52=20240731-07:54:19.363|56=D161620797_client1|1=Account_Masked|336=FXCM|453=1|448=FXCM ID|447=D|452=3|802=1|523=1613144|803=10|581=6|625=MINIDEMO|710=1|721=19|727=4|728=0|729=0|10=189|
[2024-07-31 15:54:19.414] [fix] [debug] App   IN  8=FIX.4.4|9=527|35=AP|34=3|49=TExecSenderCompID_Masked|50=MINIDEMO|52=20240731-07:54:19.365|56=D161620797_client1|1=Account_Masked|11=coid_1720507678843_4|15=AUD|37=320914960|55=AUD/USD|60=20240709-08:31:07.000|325=N|336=FXCM|453=1|448=FXCM ID|447=D|452=3|802=4|523=1613144|803=10|523=d161620797|803=2|523=DemoLastName|803=22|523=32|803=26|581=6|625=MINIDEMO|702=1|703=TQ|704=5000|710=1|715=20240731|721=19|724=0|727=4|728=0|730=0.6738|731=1|734=0|753=1|707=CASH|708=0|912=N|9038=10|9040=-2.43|9041=144043520|9042=20240709-08:31:07.000|9053=0|10=029|
[2024-07-31 15:54:19.422] [fix] [debug] App   IN  8=FIX.4.4|9=527|35=AP|34=4|49=TExecSenderCompID_Masked|50=MINIDEMO|52=20240731-07:54:19.366|56=D161620797_client1|1=Account_Masked|11=coid_1720507642536_2|15=AUD|37=320914959|55=AUD/USD|60=20240709-06:47:22.000|325=N|336=FXCM|453=1|448=FXCM ID|447=D|452=3|802=4|523=1613144|803=10|523=d161620797|803=2|523=DemoLastName|803=22|523=32|803=26|581=6|625=MINIDEMO|702=1|703=TQ|704=1000|710=1|715=20240731|721=19|724=0|727=4|728=0|730=0.67429|731=1|734=0|753=1|707=CASH|708=0|912=N|9038=2|9040=-0.48|9041=144043519|9042=20240709-06:47:22.000|9053=0|10=043|
[2024-07-31 15:54:19.426] [fix] [debug] App   IN  8=FIX.4.4|9=527|35=AP|34=5|49=TExecSenderCompID_Masked|50=MINIDEMO|52=20240731-07:54:19.366|56=D161620797_client1|1=Account_Masked|11=coid_1720508211516_13|15=AUD|37=320914974|55=AUD/USD|60=20240709-08:25:54.000|325=N|336=FXCM|453=1|448=FXCM ID|447=D|452=3|802=4|523=1613144|803=10|523=d161620797|803=2|523=DemoLastName|803=22|523=32|803=26|581=6|625=MINIDEMO|702=1|703=TQ|704=5000|710=1|715=20240731|721=19|724=0|727=4|728=0|730=0.674|731=1|734=0|753=1|707=CASH|708=0|912=N|9038=10|9040=-2.43|9041=144043545|9042=20240709-08:25:54.000|9053=0|10=028|
[2024-07-31 15:54:19.431] [fix] [debug] App   IN  8=FIX.4.4|9=528|35=AP|34=6|49=TExecSenderCompID_Masked|50=MINIDEMO|52=20240731-07:54:19.366|56=D161620797_client1|1=Account_Masked|11=coid_1720521885342_1|15=AUD|37=320915987|55=AUD/USD|60=20240709-10:44:45.000|325=N|336=FXCM|453=1|448=FXCM ID|447=D|452=3|802=4|523=1613144|803=10|523=d161620797|803=2|523=DemoLastName|803=22|523=32|803=26|581=6|625=MINIDEMO|702=1|703=TQ|704=5000|710=1|715=20240731|721=19|724=0|727=4|728=0|730=0.67427|731=1|734=0|753=1|707=CASH|708=0|912=Y|9038=10|9040=-2.43|9041=144043771|9042=20240709-10:44:45.000|9053=0|10=098|
[2024-07-31 15:54:19.438] [fix] [debug] App   IN  8=FIX.4.4|9=296|35=AO|34=7|49=TExecSenderCompID_Masked|50=MINIDEMO|52=20240731-07:54:19.392|56=D161620797_client1|1=Account_Masked|58=No trades in response|336=FXCM|453=1|448=FXCM ID|447=D|452=3|802=1|523=1613144|803=10|581=6|625=MINIDEMO|710=2|721=0|727=0|728=2|729=2|9025=2|9029=No close positions in response|10=243|
[2024-07-31 15:54:19.440] [fix] [debug] Admin OUT 8=FIX.4.4|9=100|35=5|34=4|49=TExecSenderCompID_Masked|52=20240731-07:54:19.000|56=FXCM|57=MINIDEMO|1=Account_Masked|10=038|
[2024-07-31 15:54:19.441] [fix] [debug] Admin OUT 8=FIX.4.4|9=100|35=5|34=2|49=MDataSenderCompID_Masked|52=20240731-07:54:19.000|56=FXCM|57=MINIDEMO|1=Account_Masked|10=018|
[2024-07-31 15:54:19.832] [fix] [debug] Admin IN  8=FIX.4.4|9=114|35=5|34=8|49=TExecSenderCompID_Masked|50=MINIDEMO|52=20240731-07:54:19.662|56=D161620797_client1|1=Account_Masked|10=050|
[2024-07-31 15:54:19.835] [fix] [debug] Admin OUT 8=FIX.4.4|9=100|35=5|34=5|49=TExecSenderCompID_Masked|52=20240731-07:54:19.000|56=FXCM|57=MINIDEMO|1=Account_Masked|10=039|
[2024-07-31 15:54:19.844] [fix] [debug] Admin OUT 8=FIX.4.4|9=142|35=A|34=1|49=TExecSenderCompID_Masked|52=20240731-07:54:19.000|56=FXCM|57=MINIDEMO|1=Account_Masked|98=0|108=60|141=Y|553=D161620797|554=1234|10=026|
[2024-07-31 15:54:19.849] [fix] [debug] Admin IN  8=FIX.4.4|9=117|35=5|34=2|49=TExecSenderCompID_Masked|50=MINIDEMO|52=20240731-07:54:19.669|56=MD_D161620797_client1|1=Account_Masked|10=038|
[2024-07-31 15:54:19.850] [fix] [debug] Admin OUT 8=FIX.4.4|9=100|35=5|34=3|49=MDataSenderCompID_Masked|52=20240731-07:54:19.000|56=FXCM|57=MINIDEMO|1=Account_Masked|10=019|
