[2024-07-31 15:22:26.261] [fix] [debug] Admin OUT 8=FIX.4.4|9=142|35=A|34=1|49=TExecSenderCompID_Masked|52=20240731-07:22:26.000|56=FXCM|57=MINIDEMO|1=Account_Masked|98=0|108=60|141=Y|553=D161620797|554=1234|10=019|
[2024-07-31 15:22:26.269] [fix] [debug] Admin OUT 8=FIX.4.4|9=142|35=A|34=1|49=MDataSenderCompID_Masked|52=20240731-07:22:26.000|56=FXCM|57=MINIDEMO|1=Account_Masked|98=0|108=60|141=Y|553=D161620797|554=1234|10=001|
[2024-07-31 15:22:26.965] [fix] [debug] Admin IN  8=FIX.4.4|9=132|35=A|34=1|49=TExecSenderCompID_Masked|50=MINIDEMO|52=20240731-07:22:26.788|56=D161620797_client1|1=Account_Masked|98=0|108=60|141=Y|10=130|
[2024-07-31 15:22:27.342] [fix] [debug] Admin IN  8=FIX.4.4|9=135|35=A|34=1|49=TExecSenderCompID_Masked|50=MINIDEMO|52=20240731-07:22:27.175|56=MD_D161620797_client1|1=Account_Masked|98=0|108=60|141=Y|10=108|
[2024-07-31 15:22:28.362] [fix] [debug] Admin OUT 8=FIX.4.4|9=100|35=5|34=2|49=TExecSenderCompID_Masked|52=20240731-07:22:28.000|56=FXCM|57=MINIDEMO|1=Account_Masked|10=031|
[2024-07-31 15:22:28.364] [fix] [debug] Admin OUT 8=FIX.4.4|9=100|35=5|34=2|49=MDataSenderCompID_Masked|52=20240731-07:22:28.000|56=FXCM|57=MINIDEMO|1=Account_Masked|10=013|
[2024-07-31 15:22:28.818] [fix] [debug] Admin IN  8=FIX.4.4|9=117|35=5|34=2|49=TExecSenderCompID_Masked|50=MINIDEMO|52=20240731-07:22:28.540|56=MD_D161620797_client1|1=Account_Masked|10=021|
[2024-07-31 15:22:28.819] [fix] [debug] Admin OUT 8=FIX.4.4|9=100|35=5|34=3|49=MDataSenderCompID_Masked|52=20240731-07:22:28.000|56=FXCM|57=MINIDEMO|1=Account_Masked|10=014|
[2024-07-31 15:22:28.827] [fix] [debug] Admin OUT 8=FIX.4.4|9=142|35=A|34=1|49=MDataSenderCompID_Masked|52=20240731-07:22:28.000|56=FXCM|57=MINIDEMO|1=Account_Masked|98=0|108=60|141=Y|553=D161620797|554=1234|10=003|
[2024-07-31 15:22:28.833] [fix] [debug] Admin IN  8=FIX.4.4|9=114|35=5|34=2|49=TExecSenderCompID_Masked|50=MINIDEMO|52=20240731-07:22:28.510|56=D161620797_client1|1=Account_Masked|10=031|
[2024-07-31 15:22:28.833] [fix] [debug] Admin OUT 8=FIX.4.4|9=100|35=5|34=3|49=TExecSenderCompID_Masked|52=20240731-07:22:28.000|56=FXCM|57=MINIDEMO|1=Account_Masked|10=032|
