[2024-08-01 14:35:32.633] [fix] [debug] Admin OUT 8=FIX.4.4|9=142|35=A|34=1|49=TExecSenderCompID_Masked|52=20240801-06:35:32.000|56=FXCM|57=MINIDEMO|1=Account_Masked|98=0|108=60|141=Y|553=D161620797|554=1234|10=017|
[2024-08-01 14:35:32.654] [fix] [debug] Admin OUT 8=FIX.4.4|9=142|35=A|34=1|49=MDataSenderCompID_Masked|52=20240801-06:35:32.000|56=FXCM|57=MINIDEMO|1=Account_Masked|98=0|108=60|141=Y|553=D161620797|554=1234|10=255|
[2024-08-01 14:35:33.164] [fix] [debug] Admin IN  8=FIX.4.4|9=132|35=A|34=1|49=TExecSenderCompID_Masked|50=MINIDEMO|52=20240801-06:35:33.059|56=D161620797_client1|1=Account_Masked|98=0|108=60|141=Y|10=120|
[2024-08-01 14:35:34.143] [fix] [debug] Admin IN  8=FIX.4.4|9=135|35=A|34=1|49=TExecSenderCompID_Masked|50=MINIDEMO|52=20240801-06:35:33.864|56=MD_D161620797_client1|1=Account_Masked|98=0|108=60|141=Y|10=111|
[2024-08-01 14:35:37.586] [fix] [debug] Admin OUT 8=FIX.4.4|9=113|35=1|34=2|49=TExecSenderCompID_Masked|52=20240801-06:35:37.000|56=FXCM|57=MINIDEMO|1=Account_Masked|112=test_req|10=089|
[2024-08-01 14:35:38.125] [fix] [debug] Admin IN  8=FIX.4.4|9=127|35=0|34=2|49=TExecSenderCompID_Masked|50=MINIDEMO|52=20240801-06:35:37.751|56=D161620797_client1|1=Account_Masked|112=test_req|10=095|
[2024-08-01 14:35:42.599] [fix] [debug] Admin OUT 8=FIX.4.4|9=100|35=5|34=3|49=TExecSenderCompID_Masked|52=20240801-06:35:42.000|56=FXCM|57=MINIDEMO|1=Account_Masked|10=029|
[2024-08-01 14:35:42.600] [fix] [debug] Admin OUT 8=FIX.4.4|9=100|35=5|34=2|49=MDataSenderCompID_Masked|52=20240801-06:35:42.000|56=FXCM|57=MINIDEMO|1=Account_Masked|10=010|
[2024-08-01 14:35:42.951] [fix] [debug] Admin IN  8=FIX.4.4|9=114|35=5|34=3|49=TExecSenderCompID_Masked|50=MINIDEMO|52=20240801-06:35:42.753|56=D161620797_client1|1=Account_Masked|10=038|
[2024-08-01 14:35:42.952] [fix] [debug] Admin OUT 8=FIX.4.4|9=100|35=5|34=4|49=TExecSenderCompID_Masked|52=20240801-06:35:42.000|56=FXCM|57=MINIDEMO|1=Account_Masked|10=030|
[2024-08-01 14:35:42.967] [fix] [debug] Admin OUT 8=FIX.4.4|9=142|35=A|34=1|49=TExecSenderCompID_Masked|52=20240801-06:35:42.000|56=FXCM|57=MINIDEMO|1=Account_Masked|98=0|108=60|141=Y|553=D161620797|554=1234|10=018|
[2024-08-01 14:35:43.001] [fix] [debug] Admin IN  8=FIX.4.4|9=117|35=5|34=2|49=TExecSenderCompID_Masked|50=MINIDEMO|52=20240801-06:35:42.874|56=MD_D161620797_client1|1=Account_Masked|10=028|
[2024-08-01 14:35:43.002] [fix] [debug] Admin OUT 8=FIX.4.4|9=100|35=5|34=3|49=MDataSenderCompID_Masked|52=20240801-06:35:42.000|56=FXCM|57=MINIDEMO|1=Account_Masked|10=011|
[2024-08-01 14:35:43.011] [fix] [debug] Admin OUT 8=FIX.4.4|9=142|35=A|34=1|49=MDataSenderCompID_Masked|52=20240801-06:35:42.000|56=FXCM|57=MINIDEMO|1=Account_Masked|98=0|108=60|141=Y|553=D161620797|554=1234|10=000|
