[2024-07-31 15:56:07.765] [fix] [debug] Admin OUT 8=FIX.4.4|9=142|35=A|34=1|49=MDataSenderCompID_Masked|52=20240731-07:56:07.000|56=FXCM|57=MINIDEMO|1=Account_Masked|98=0|108=60|141=Y|553=D161620797|554=1234|10=007|
[2024-07-31 15:56:07.770] [fix] [debug] Admin OUT 8=FIX.4.4|9=142|35=A|34=1|49=TExecSenderCompID_Masked|52=20240731-07:56:07.000|56=FXCM|57=MINIDEMO|1=Account_Masked|98=0|108=60|141=Y|553=D161620797|554=1234|10=025|
[2024-07-31 15:56:08.145] [fix] [debug] Admin IN  8=FIX.4.4|9=135|35=A|34=1|49=TExecSenderCompID_Masked|50=MINIDEMO|52=20240731-07:56:08.099|56=MD_D161620797_client1|1=Account_Masked|98=0|108=60|141=Y|10=119|
[2024-07-31 15:56:08.205] [fix] [debug] Admin IN  8=FIX.4.4|9=132|35=A|34=1|49=TExecSenderCompID_Masked|50=MINIDEMO|52=20240731-07:56:08.151|56=D161620797_client1|1=Account_Masked|98=0|108=60|141=Y|10=121|
[2024-07-31 15:56:08.212] [fix] [debug] App   OUT 8=FIX.4.4|9=193|35=D|34=2|49=TExecSenderCompID_Masked|52=20240731-07:56:08.000|56=FXCM|57=MINIDEMO|1=Account_Masked|11=coid_1722412568207_1|21=1|38=5000|40=1|54=2|55=AUD/USD|59=1|60=20240731-07:56:08|336=FXCM|10=140|
[2024-07-31 15:56:08.526] [fix] [debug] App   IN  8=FIX.4.4|9=499|35=8|34=2|49=TExecSenderCompID_Masked|50=MINIDEMO|52=20240731-07:56:08.460|56=D161620797_client1|1=Account_Masked|6=0.65035|11=coid_1722412568207_1|14=0|15=AUD|17=1722325094585|31=0.65035|32=0|37=321066334|38=5000|39=0|40=1|44=0.65035|54=2|55=AUD/USD|59=1|60=20240731-07:56:08.457|99=0|150=0|151=5000|211=0|336=FXCM|453=1|448=FXCM ID|447=D|452=3|802=4|523=1613144|803=10|523=d161620797|803=2|523=DemoLastName|803=22|523=32|803=26|625=MINIDEMO|835=0|836=0|1094=0|9041=144083394|9050=OM|9051=P|9061=0|10=007|
[2024-07-31 15:56:08.534] [fix] [debug] App   IN  8=FIX.4.4|9=502|35=8|34=3|49=TExecSenderCompID_Masked|50=MINIDEMO|52=20240731-07:56:08.461|56=D161620797_client1|1=Account_Masked|6=0.65035|11=coid_1722412568207_1|14=5000|15=AUD|17=1722325094586|31=0.65035|32=5000|37=321066334|38=5000|39=7|40=1|44=0.65035|54=2|55=AUD/USD|59=1|60=20240731-07:56:08.458|99=0|150=F|151=0|211=0|336=FXCM|453=1|448=FXCM ID|447=D|452=3|802=4|523=1613144|803=10|523=d161620797|803=2|523=DemoLastName|803=22|523=32|803=26|625=MINIDEMO|835=0|836=0|1094=0|9041=144083394|9050=OM|9051=E|9061=0|10=163|
[2024-07-31 15:56:08.681] [fix] [debug] App   IN  8=FIX.4.4|9=502|35=8|34=4|49=TExecSenderCompID_Masked|50=MINIDEMO|52=20240731-07:56:08.621|56=D161620797_client1|1=Account_Masked|6=0.65035|11=coid_1722412568207_1|14=5000|15=AUD|17=5|31=0.65035|32=5000|37=321066334|38=5000|39=2|40=1|44=0.65035|54=2|55=AUD/USD|58=Executed|59=1|60=20240731-07:56:08.613|99=0|150=F|151=0|211=0|336=FXCM|453=1|448=FXCM ID|447=D|452=3|802=4|523=1613144|803=10|523=d161620797|803=2|523=DemoLastName|803=22|523=32|803=26|625=MINIDEMO|835=0|836=0|1094=0|9041=144083394|9050=OM|9051=F|9061=0|10=008|
[2024-07-31 15:56:08.687] [fix] [debug] App   OUT 8=FIX.4.4|9=208|35=D|34=3|49=TExecSenderCompID_Masked|52=20240731-07:56:08.000|56=FXCM|57=MINIDEMO|1=Account_Masked|11=coid_1722412568684_2|21=1|38=5000|40=1|54=1|55=AUD/USD|59=1|60=20240731-07:56:08|336=FXCM|9041=144083394|10=115|
[2024-07-31 15:56:09.013] [fix] [debug] App   IN  8=FIX.4.4|9=499|35=8|34=5|49=TExecSenderCompID_Masked|50=MINIDEMO|52=20240731-07:56:08.911|56=D161620797_client1|1=Account_Masked|6=0.65052|11=coid_1722412568684_2|14=0|15=AUD|17=1722325094587|31=0.65052|32=0|37=321066335|38=5000|39=0|40=1|44=0.65052|54=1|55=AUD/USD|59=1|60=20240731-07:56:08.908|99=0|150=0|151=5000|211=0|336=FXCM|453=1|448=FXCM ID|447=D|452=3|802=4|523=1613144|803=10|523=d161620797|803=2|523=DemoLastName|803=22|523=32|803=26|625=MINIDEMO|835=0|836=0|1094=0|9041=144083394|9050=CM|9051=P|9061=0|10=009|
[2024-07-31 15:56:09.018] [fix] [debug] App   IN  8=FIX.4.4|9=502|35=8|34=6|49=TExecSenderCompID_Masked|50=MINIDEMO|52=20240731-07:56:08.911|56=D161620797_client1|1=Account_Masked|6=0.65052|11=coid_1722412568684_2|14=5000|15=AUD|17=1722325094588|31=0.65052|32=5000|37=321066335|38=5000|39=7|40=1|44=0.65052|54=1|55=AUD/USD|59=1|60=20240731-07:56:08.909|99=0|150=F|151=0|211=0|336=FXCM|453=1|448=FXCM ID|447=D|452=3|802=4|523=1613144|803=10|523=d161620797|803=2|523=DemoLastName|803=22|523=32|803=26|625=MINIDEMO|835=0|836=0|1094=0|9041=144083394|9050=CM|9051=E|9061=0|10=164|
[2024-07-31 15:56:09.022] [fix] [debug] App   IN  8=FIX.4.4|9=502|35=8|34=7|49=TExecSenderCompID_Masked|50=MINIDEMO|52=20240731-07:56:08.962|56=D161620797_client1|1=Account_Masked|6=0.65052|11=coid_1722412568684_2|14=5000|15=AUD|17=5|31=0.65052|32=5000|37=321066335|38=5000|39=2|40=1|44=0.65052|54=1|55=AUD/USD|58=Executed|59=1|60=20240731-07:56:08.960|99=0|150=F|151=0|211=0|336=FXCM|453=1|448=FXCM ID|447=D|452=3|802=4|523=1613144|803=10|523=d161620797|803=2|523=DemoLastName|803=22|523=32|803=26|625=MINIDEMO|835=0|836=0|1094=0|9041=144083394|9050=CM|9051=F|9061=0|10=019|
[2024-07-31 15:56:09.025] [fix] [debug] Admin OUT 8=FIX.4.4|9=100|35=5|34=4|49=TExecSenderCompID_Masked|52=20240731-07:56:09.000|56=FXCM|57=MINIDEMO|1=Account_Masked|10=039|
[2024-07-31 15:56:09.026] [fix] [debug] Admin OUT 8=FIX.4.4|9=100|35=5|34=2|49=MDataSenderCompID_Masked|52=20240731-07:56:09.000|56=FXCM|57=MINIDEMO|1=Account_Masked|10=019|
[2024-07-31 15:56:09.302] [fix] [debug] Admin IN  8=FIX.4.4|9=114|35=5|34=8|49=TExecSenderCompID_Masked|50=MINIDEMO|52=20240731-07:56:09.249|56=D161620797_client1|1=Account_Masked|10=052|
[2024-07-31 15:56:09.303] [fix] [debug] Admin OUT 8=FIX.4.4|9=100|35=5|34=5|49=TExecSenderCompID_Masked|52=20240731-07:56:09.000|56=FXCM|57=MINIDEMO|1=Account_Masked|10=040|
[2024-07-31 15:56:09.311] [fix] [debug] Admin OUT 8=FIX.4.4|9=142|35=A|34=1|49=TExecSenderCompID_Masked|52=20240731-07:56:09.000|56=FXCM|57=MINIDEMO|1=Account_Masked|98=0|108=60|141=Y|553=D161620797|554=1234|10=027|
[2024-07-31 15:56:09.330] [fix] [debug] Admin IN  8=FIX.4.4|9=117|35=5|34=2|49=TExecSenderCompID_Masked|50=MINIDEMO|52=20240731-07:56:09.290|56=MD_D161620797_client1|1=Account_Masked|10=029|
[2024-07-31 15:56:09.331] [fix] [debug] Admin OUT 8=FIX.4.4|9=100|35=5|34=3|49=MDataSenderCompID_Masked|52=20240731-07:56:09.000|56=FXCM|57=MINIDEMO|1=Account_Masked|10=020|
[2024-07-31 15:56:09.340] [fix] [debug] Admin OUT 8=FIX.4.4|9=142|35=A|34=1|49=MDataSenderCompID_Masked|52=20240731-07:56:09.000|56=FXCM|57=MINIDEMO|1=Account_Masked|98=0|108=60|141=Y|553=D161620797|554=1234|10=009|
