[2024-08-01 14:17:26.437] [fix] [debug] Admin OUT 8=FIX.4.4|9=142|35=A|34=1|49=MDataSenderCompID_Masked|52=20240801-06:17:26.000|56=FXCM|57=MINIDEMO|1=Account_Masked|98=0|108=60|141=Y|553=D161620797|554=1234|10=002|
[2024-08-01 14:17:26.443] [fix] [debug] Admin OUT 8=FIX.4.4|9=142|35=A|34=1|49=TExecSenderCompID_Masked|52=20240801-06:17:26.000|56=FXCM|57=MINIDEMO|1=Account_Masked|98=0|108=60|141=Y|553=D161620797|554=1234|10=020|
[2024-08-01 14:17:26.802] [fix] [debug] Admin IN  8=FIX.4.4|9=132|35=A|34=1|49=TExecSenderCompID_Masked|50=MINIDEMO|52=20240801-06:17:26.701|56=D161620797_client1|1=Account_Masked|98=0|108=60|141=Y|10=116|
[2024-08-01 14:17:28.073] [fix] [debug] Admin IN  8=FIX.4.4|9=135|35=A|34=1|49=TExecSenderCompID_Masked|50=MINIDEMO|52=20240801-06:17:27.878|56=MD_D161620797_client1|1=Account_Masked|98=0|108=60|141=Y|10=119|
[2024-08-01 14:17:28.079] [fix] [debug] App   OUT 8=FIX.4.4|9=167|35=V|34=2|49=MDataSenderCompID_Masked|52=20240801-06:17:28.000|56=FXCM|57=MINIDEMO|1=Account_Masked|146=1|55=AUD/USD|262=AUD/USD_1|263=1|264=0|265=0|267=2|269=0|269=1|10=141|
[2024-08-01 14:17:28.383] [fix] [debug] App   IN  8=FIX.4.4|9=525|35=W|34=2|49=TExecSenderCompID_Masked|50=MINIDEMO|52=20240801-06:17:28.248|56=MD_D161620797_client1|1=Account_Masked|55=AUD/USD|228=1|231=1|262=AUD/USD_1|268=4|269=0|270=0.65283|271=0|272=20240801|273=06:17:28.000|336=FXCM|625=MINIDEMO|276=A|282=PSFX_DESK|299=FXCM-AUDUSD-7124349|537=1|269=1|270=0.65300|271=0|272=20240801|273=06:17:28.000|336=FXCM|625=MINIDEMO|276=A|282=PSFX_DESK|299=FXCM-AUDUSD-7124349|537=1|269=7|270=0.65516|269=8|270=0.65229|460=4|9001=5|9002=0.0001|9005=1350|9020=2|9080=1|9094=50000000|9095=1|9096=O|10=066|
[2024-08-01 14:17:28.396] [fix] [debug] App   OUT 8=FIX.4.4|9=161|35=V|34=3|49=MDataSenderCompID_Masked|52=20240801-06:17:28.000|56=FXCM|57=MINIDEMO|1=Account_Masked|146=1|55=AUD/USD|262=AUD/USD_1|263=2|264=0|267=2|269=0|269=1|10=126|
[2024-08-01 14:17:29.408] [fix] [debug] Admin OUT 8=FIX.4.4|9=100|35=5|34=2|49=TExecSenderCompID_Masked|52=20240801-06:17:29.000|56=FXCM|57=MINIDEMO|1=Account_Masked|10=033|
[2024-08-01 14:17:29.412] [fix] [debug] Admin OUT 8=FIX.4.4|9=100|35=5|34=4|49=MDataSenderCompID_Masked|52=20240801-06:17:29.000|56=FXCM|57=MINIDEMO|1=Account_Masked|10=017|
[2024-08-01 14:17:29.709] [fix] [debug] Admin IN  8=FIX.4.4|9=114|35=5|34=2|49=TExecSenderCompID_Masked|50=MINIDEMO|52=20240801-06:17:29.567|56=D161620797_client1|1=Account_Masked|10=045|
[2024-08-01 14:17:29.710] [fix] [debug] Admin OUT 8=FIX.4.4|9=100|35=5|34=3|49=TExecSenderCompID_Masked|52=20240801-06:17:29.000|56=FXCM|57=MINIDEMO|1=Account_Masked|10=034|
[2024-08-01 14:17:29.720] [fix] [debug] Admin OUT 8=FIX.4.4|9=142|35=A|34=1|49=TExecSenderCompID_Masked|52=20240801-06:17:29.000|56=FXCM|57=MINIDEMO|1=Account_Masked|98=0|108=60|141=Y|553=D161620797|554=1234|10=023|
[2024-08-01 14:17:29.828] [fix] [debug] Admin IN  8=FIX.4.4|9=117|35=5|34=3|49=TExecSenderCompID_Masked|50=MINIDEMO|52=20240801-06:17:29.696|56=MD_D161620797_client1|1=Account_Masked|10=036|
[2024-08-01 14:17:29.829] [fix] [debug] Admin OUT 8=FIX.4.4|9=100|35=5|34=5|49=MDataSenderCompID_Masked|52=20240801-06:17:29.000|56=FXCM|57=MINIDEMO|1=Account_Masked|10=018|
[2024-08-01 14:17:29.837] [fix] [debug] Admin OUT 8=FIX.4.4|9=142|35=A|34=1|49=MDataSenderCompID_Masked|52=20240801-06:17:29.000|56=FXCM|57=MINIDEMO|1=Account_Masked|98=0|108=60|141=Y|553=D161620797|554=1234|10=005|
