[2024-07-31 15:56:46.370] [fix] [debug] Admin OUT 8=FIX.4.4|9=142|35=A|34=1|49=MDataSenderCompID_Masked|52=20240731-07:56:46.000|56=FXCM|57=MINIDEMO|1=Account_Masked|98=0|108=60|141=Y|553=D161620797|554=1234|10=010|
[2024-07-31 15:56:46.375] [fix] [debug] Admin OUT 8=FIX.4.4|9=142|35=A|34=1|49=TExecSenderCompID_Masked|52=20240731-07:56:46.000|56=FXCM|57=MINIDEMO|1=Account_Masked|98=0|108=60|141=Y|553=D161620797|554=1234|10=028|
[2024-07-31 15:56:46.777] [fix] [debug] Admin IN  8=FIX.4.4|9=132|35=A|34=1|49=TExecSenderCompID_Masked|50=MINIDEMO|52=20240731-07:56:46.694|56=D161620797_client1|1=Account_Masked|98=0|108=60|141=Y|10=135|
[2024-07-31 15:56:46.787] [fix] [debug] Admin IN  8=FIX.4.4|9=135|35=A|34=1|49=TExecSenderCompID_Masked|50=MINIDEMO|52=20240731-07:56:46.755|56=MD_D161620797_client1|1=Account_Masked|98=0|108=60|141=Y|10=120|
[2024-07-31 15:56:46.793] [fix] [debug] App   OUT 8=FIX.4.4|9=201|35=D|34=2|49=TExecSenderCompID_Masked|52=20240731-07:56:46.000|56=FXCM|57=MINIDEMO|1=Account_Masked|11=coid_1722412606788_1|21=1|38=5000|40=2|44=0.64|54=1|55=AUD/USD|59=1|60=20240731-07:56:46|336=FXCM|10=251|
[2024-07-31 15:56:47.193] [fix] [debug] App   IN  8=FIX.4.4|9=490|35=8|34=2|49=TExecSenderCompID_Masked|50=MINIDEMO|52=20240731-07:56:47.033|56=D161620797_client1|1=Account_Masked|6=0.64|11=coid_1722412606788_1|14=0|15=AUD|17=1722325094594|31=0.64|32=0|37=321066338|38=5000|39=0|40=2|44=0.64|54=1|55=AUD/USD|59=1|60=20240731-07:56:47.031|99=0|150=0|151=5000|211=0|336=FXCM|453=1|448=FXCM ID|447=D|452=3|802=4|523=1613144|803=10|523=d161620797|803=2|523=DemoLastName|803=22|523=32|803=26|625=MINIDEMO|835=0|836=0|1094=0|9041=144083396|9050=LE|9051=W|9061=0|10=050|
[2024-07-31 15:56:47.201] [fix] [debug] App   OUT 8=FIX.4.4|9=221|35=F|34=3|49=TExecSenderCompID_Masked|52=20240731-07:56:47.000|56=FXCM|57=MINIDEMO|1=Account_Masked|11=coid_1722412607198_2|37=321066338|38=5000|41=coid_1722412606788_1|54=1|55=AUD/USD|60=20240731-07:56:47|9041=144083396|10=055|
[2024-07-31 15:56:47.600] [fix] [debug] App   IN  8=FIX.4.4|9=502|35=8|34=3|49=TExecSenderCompID_Masked|50=MINIDEMO|52=20240731-07:56:47.472|56=D161620797_client1|1=Account_Masked|6=0.64|11=coid_1722412607198_2|14=0|15=AUD|17=3|31=0.64|32=0|37=321066338|38=5000|39=6|40=2|41=coid_1722412606788_1|44=0.64|54=1|55=AUD/USD|59=1|60=20240731-07:56:47.470|99=0|150=6|151=5000|211=0|336=FXCM|453=1|448=FXCM ID|447=D|452=3|802=4|523=1613144|803=10|523=d161620797|803=2|523=DemoLastName|803=22|523=32|803=26|625=MINIDEMO|835=0|836=0|1094=0|9041=144083396|9050=LE|9051=S|9061=0|10=165|
[2024-07-31 15:56:47.605] [fix] [debug] App   IN  8=FIX.4.4|9=512|35=8|34=4|49=TExecSenderCompID_Masked|50=MINIDEMO|52=20240731-07:56:47.473|56=D161620797_client1|1=Account_Masked|6=0.64|11=coid_1722412607198_2|14=0|15=AUD|17=4|31=0.64|32=0|37=321066338|38=5000|39=4|40=2|41=coid_1722412606788_1|44=0.64|54=1|55=AUD/USD|58=Cancelled|59=1|60=20240731-07:56:47.471|99=0|150=4|151=0|211=0|336=FXCM|453=1|448=FXCM ID|447=D|452=3|802=4|523=1613144|803=10|523=d161620797|803=2|523=DemoLastName|803=22|523=32|803=26|625=MINIDEMO|835=0|836=0|1094=0|9041=144083396|9050=LE|9051=C|9061=0|10=039|
[2024-07-31 15:56:47.608] [fix] [debug] Admin OUT 8=FIX.4.4|9=100|35=5|34=4|49=TExecSenderCompID_Masked|52=20240731-07:56:47.000|56=FXCM|57=MINIDEMO|1=Account_Masked|10=041|
[2024-07-31 15:56:47.609] [fix] [debug] Admin OUT 8=FIX.4.4|9=100|35=5|34=2|49=MDataSenderCompID_Masked|52=20240731-07:56:47.000|56=FXCM|57=MINIDEMO|1=Account_Masked|10=021|
[2024-07-31 15:56:47.866] [fix] [debug] Admin IN  8=FIX.4.4|9=117|35=5|34=2|49=TExecSenderCompID_Masked|50=MINIDEMO|52=20240731-07:56:47.828|56=MD_D161620797_client1|1=Account_Masked|10=038|
[2024-07-31 15:56:47.867] [fix] [debug] Admin OUT 8=FIX.4.4|9=100|35=5|34=3|49=MDataSenderCompID_Masked|52=20240731-07:56:47.000|56=FXCM|57=MINIDEMO|1=Account_Masked|10=022|
[2024-07-31 15:56:47.875] [fix] [debug] Admin OUT 8=FIX.4.4|9=142|35=A|34=1|49=MDataSenderCompID_Masked|52=20240731-07:56:47.000|56=FXCM|57=MINIDEMO|1=Account_Masked|98=0|108=60|141=Y|553=D161620797|554=1234|10=011|
[2024-07-31 15:56:47.884] [fix] [debug] Admin IN  8=FIX.4.4|9=114|35=5|34=5|49=TExecSenderCompID_Masked|50=MINIDEMO|52=20240731-07:56:47.828|56=D161620797_client1|1=Account_Masked|10=054|
[2024-07-31 15:56:47.885] [fix] [debug] Admin OUT 8=FIX.4.4|9=100|35=5|34=5|49=TExecSenderCompID_Masked|52=20240731-07:56:47.000|56=FXCM|57=MINIDEMO|1=Account_Masked|10=042|
