[2024-08-01 14:20:41.922] [fix] [debug] Admin OUT 8=FIX.4.4|9=142|35=A|34=1|49=TExecSenderCompID_Masked|52=20240801-06:20:41.000|56=FXCM|57=MINIDEMO|1=Account_Masked|98=0|108=60|141=Y|553=D161620797|554=1234|10=011|
[2024-08-01 14:20:41.929] [fix] [debug] Admin OUT 8=FIX.4.4|9=142|35=A|34=1|49=MDataSenderCompID_Masked|52=20240801-06:20:41.000|56=FXCM|57=MINIDEMO|1=Account_Masked|98=0|108=60|141=Y|553=D161620797|554=1234|10=249|
[2024-08-01 14:20:42.470] [fix] [debug] Admin IN  8=FIX.4.4|9=132|35=A|34=1|49=TExecSenderCompID_Masked|50=MINIDEMO|52=20240801-06:20:42.296|56=D161620797_client1|1=Account_Masked|98=0|108=60|141=Y|10=117|
[2024-08-01 14:20:42.559] [fix] [debug] Admin IN  8=FIX.4.4|9=135|35=A|34=1|49=TExecSenderCompID_Masked|50=MINIDEMO|52=20240801-06:20:42.432|56=MD_D161620797_client1|1=Account_Masked|98=0|108=60|141=Y|10=096|
[2024-08-01 14:20:42.565] [fix] [debug] App   OUT 8=FIX.4.4|9=167|35=V|34=2|49=MDataSenderCompID_Masked|52=20240801-06:20:42.000|56=FXCM|57=MINIDEMO|1=Account_Masked|146=1|55=EUR/USD|262=EUR/USD_1|263=0|264=0|265=0|267=2|269=0|269=1|10=166|
[2024-08-01 14:20:42.885] [fix] [debug] App   IN  8=FIX.4.4|9=524|35=W|34=2|49=TExecSenderCompID_Masked|50=MINIDEMO|52=20240801-06:20:42.749|56=MD_D161620797_client1|1=Account_Masked|55=EUR/USD|228=1|231=1|262=EUR/USD_1|268=4|269=0|270=1.08228|271=0|272=20240801|273=06:20:42.000|336=FXCM|625=MINIDEMO|276=A|282=PSFX_DESK|299=FXCM-EURUSD-7730756|537=1|269=1|270=1.08242|271=0|272=20240801|273=06:20:42.000|336=FXCM|625=MINIDEMO|276=A|282=PSFX_DESK|299=FXCM-EURUSD-7730756|537=1|269=7|270=1.08361|269=8|270=1.08201|460=4|9001=5|9002=0.0001|9005=100|9020=2|9080=1|9094=50000000|9095=1|9096=O|10=051|
[2024-08-01 14:20:42.896] [fix] [debug] App   OUT 8=FIX.4.4|9=167|35=V|34=3|49=MDataSenderCompID_Masked|52=20240801-06:20:42.000|56=FXCM|57=MINIDEMO|1=Account_Masked|146=1|55=EUR/USD|262=EUR/USD_2|263=1|264=0|265=1|267=2|269=0|269=1|10=170|
[2024-08-01 14:20:43.250] [fix] [debug] App   IN  8=FIX.4.4|9=277|35=X|34=3|49=TExecSenderCompID_Masked|50=MINIDEMO|52=20240801-06:20:43.063|56=MD_D161620797_client1|1=Account_Masked|268=2|279=1|269=0|55=EUR/USD|270=1.08228|271=0|276=A|299=FXCM-EURUSD-7730756|537=1|279=1|269=1|55=EUR/USD|270=1.08242|271=0|276=A|299=FXCM-EURUSD-7730756|537=1|10=041|
[2024-08-01 14:20:44.801] [fix] [debug] App   IN  8=FIX.4.4|9=337|35=X|34=4|49=TExecSenderCompID_Masked|50=MINIDEMO|52=20240801-06:20:44.684|56=MD_D161620797_client1|1=Account_Masked|268=2|279=1|269=0|55=EUR/USD|270=1.08228|271=0|272=20240801|273=06:20:44.000|276=A|299=FXCM-EURUSD-7730831|537=1|279=1|269=1|55=EUR/USD|270=1.08241|271=0|272=20240801|273=06:20:44.000|276=A|299=FXCM-EURUSD-7730831|537=1|10=112|
[2024-08-01 14:20:44.818] [fix] [debug] App   IN  8=FIX.4.4|9=337|35=X|34=5|49=TExecSenderCompID_Masked|50=MINIDEMO|52=20240801-06:20:44.697|56=MD_D161620797_client1|1=Account_Masked|268=2|279=1|269=0|55=EUR/USD|270=1.08228|271=0|272=20240801|273=06:20:44.000|276=A|299=FXCM-EURUSD-7730831|537=1|279=1|269=1|55=EUR/USD|270=1.08241|271=0|272=20240801|273=06:20:44.000|276=A|299=FXCM-EURUSD-7730831|537=1|10=117|
[2024-08-01 14:20:44.985] [fix] [debug] App   IN  8=FIX.4.4|9=337|35=X|34=6|49=TExecSenderCompID_Masked|50=MINIDEMO|52=20240801-06:20:44.867|56=MD_D161620797_client1|1=Account_Masked|268=2|279=1|269=0|55=EUR/USD|270=1.08228|271=0|272=20240801|273=06:20:44.000|276=A|299=FXCM-EURUSD-7730843|537=1|279=1|269=1|55=EUR/USD|270=1.08242|271=0|272=20240801|273=06:20:44.000|276=A|299=FXCM-EURUSD-7730843|537=1|10=124|
[2024-08-01 14:20:44.988] [fix] [debug] App   IN  8=FIX.4.4|9=337|35=X|34=7|49=TExecSenderCompID_Masked|50=MINIDEMO|52=20240801-06:20:44.867|56=MD_D161620797_client1|1=Account_Masked|268=2|279=1|269=0|55=EUR/USD|270=1.08228|271=0|272=20240801|273=06:20:44.000|276=A|299=FXCM-EURUSD-7730843|537=1|279=1|269=1|55=EUR/USD|270=1.08242|271=0|272=20240801|273=06:20:44.000|276=A|299=FXCM-EURUSD-7730843|537=1|10=125|
[2024-08-01 14:20:46.603] [fix] [debug] App   IN  8=FIX.4.4|9=337|35=X|34=8|49=TExecSenderCompID_Masked|50=MINIDEMO|52=20240801-06:20:46.478|56=MD_D161620797_client1|1=Account_Masked|268=2|279=1|269=0|55=EUR/USD|270=1.08228|271=0|272=20240801|273=06:20:46.000|276=A|299=FXCM-EURUSD-7730857|537=1|279=1|269=1|55=EUR/USD|270=1.08241|271=0|272=20240801|273=06:20:46.000|276=A|299=FXCM-EURUSD-7730857|537=1|10=139|
[2024-08-01 14:20:46.605] [fix] [debug] App   IN  8=FIX.4.4|9=337|35=X|34=9|49=TExecSenderCompID_Masked|50=MINIDEMO|52=20240801-06:20:46.481|56=MD_D161620797_client1|1=Account_Masked|268=2|279=1|269=0|55=EUR/USD|270=1.08228|271=0|272=20240801|273=06:20:46.000|276=A|299=FXCM-EURUSD-7730857|537=1|279=1|269=1|55=EUR/USD|270=1.08241|271=0|272=20240801|273=06:20:46.000|276=A|299=FXCM-EURUSD-7730857|537=1|10=134|
[2024-08-01 14:20:46.831] [fix] [debug] App   IN  8=FIX.4.4|9=338|35=X|34=10|49=TExecSenderCompID_Masked|50=MINIDEMO|52=20240801-06:20:46.616|56=MD_D161620797_client1|1=Account_Masked|268=2|279=1|269=0|55=EUR/USD|270=1.08228|271=0|272=20240801|273=06:20:46.000|276=A|299=FXCM-EURUSD-7730859|537=1|279=1|269=1|55=EUR/USD|270=1.08242|271=0|272=20240801|273=06:20:46.000|276=A|299=FXCM-EURUSD-7730859|537=1|10=180|
[2024-08-01 14:20:46.834] [fix] [debug] App   IN  8=FIX.4.4|9=338|35=X|34=11|49=TExecSenderCompID_Masked|50=MINIDEMO|52=20240801-06:20:46.617|56=MD_D161620797_client1|1=Account_Masked|268=2|279=1|269=0|55=EUR/USD|270=1.08228|271=0|272=20240801|273=06:20:46.000|276=A|299=FXCM-EURUSD-7730859|537=1|279=1|269=1|55=EUR/USD|270=1.08242|271=0|272=20240801|273=06:20:46.000|276=A|299=FXCM-EURUSD-7730859|537=1|10=182|
[2024-08-01 14:20:48.264] [fix] [debug] App   IN  8=FIX.4.4|9=338|35=X|34=12|49=TExecSenderCompID_Masked|50=MINIDEMO|52=20240801-06:20:48.083|56=MD_D161620797_client1|1=Account_Masked|268=2|279=1|269=0|55=EUR/USD|270=1.08228|271=0|272=20240801|273=06:20:48.000|276=A|299=FXCM-EURUSD-7730890|537=1|279=1|269=1|55=EUR/USD|270=1.08241|271=0|272=20240801|273=06:20:48.000|276=A|299=FXCM-EURUSD-7730890|537=1|10=175|
[2024-08-01 14:20:48.267] [fix] [debug] App   IN  8=FIX.4.4|9=338|35=X|34=13|49=TExecSenderCompID_Masked|50=MINIDEMO|52=20240801-06:20:48.084|56=MD_D161620797_client1|1=Account_Masked|268=2|279=1|269=0|55=EUR/USD|270=1.08228|271=0|272=20240801|273=06:20:48.000|276=A|299=FXCM-EURUSD-7730890|537=1|279=1|269=1|55=EUR/USD|270=1.08241|271=0|272=20240801|273=06:20:48.000|276=A|299=FXCM-EURUSD-7730890|537=1|10=177|
[2024-08-01 14:20:48.471] [fix] [debug] App   IN  8=FIX.4.4|9=338|35=X|34=14|49=TExecSenderCompID_Masked|50=MINIDEMO|52=20240801-06:20:48.324|56=MD_D161620797_client1|1=Account_Masked|268=2|279=1|269=0|55=EUR/USD|270=1.08228|271=0|272=20240801|273=06:20:48.000|276=A|299=FXCM-EURUSD-7730901|537=1|279=1|269=1|55=EUR/USD|270=1.08242|271=0|272=20240801|273=06:20:48.000|276=A|299=FXCM-EURUSD-7730901|537=1|10=162|
[2024-08-01 14:20:48.474] [fix] [debug] App   IN  8=FIX.4.4|9=338|35=X|34=15|49=TExecSenderCompID_Masked|50=MINIDEMO|52=20240801-06:20:48.329|56=MD_D161620797_client1|1=Account_Masked|268=2|279=1|269=0|55=EUR/USD|270=1.08228|271=0|272=20240801|273=06:20:48.000|276=A|299=FXCM-EURUSD-7730901|537=1|279=1|269=1|55=EUR/USD|270=1.08242|271=0|272=20240801|273=06:20:48.000|276=A|299=FXCM-EURUSD-7730901|537=1|10=168|
[2024-08-01 14:20:51.524] [fix] [debug] Admin OUT 8=FIX.4.4|9=100|35=5|34=2|49=TExecSenderCompID_Masked|52=20240801-06:20:51.000|56=FXCM|57=MINIDEMO|1=Account_Masked|10=022|
[2024-08-01 14:20:51.525] [fix] [debug] Admin OUT 8=FIX.4.4|9=100|35=5|34=4|49=MDataSenderCompID_Masked|52=20240801-06:20:51.000|56=FXCM|57=MINIDEMO|1=Account_Masked|10=006|
[2024-08-01 14:20:51.815] [fix] [debug] Admin IN  8=FIX.4.4|9=114|35=5|34=2|49=TExecSenderCompID_Masked|50=MINIDEMO|52=20240801-06:20:51.689|56=D161620797_client1|1=Account_Masked|10=039|
[2024-08-01 14:20:51.817] [fix] [debug] Admin OUT 8=FIX.4.4|9=100|35=5|34=3|49=TExecSenderCompID_Masked|52=20240801-06:20:51.000|56=FXCM|57=MINIDEMO|1=Account_Masked|10=023|
[2024-08-01 14:20:51.827] [fix] [debug] Admin OUT 8=FIX.4.4|9=142|35=A|34=1|49=TExecSenderCompID_Masked|52=20240801-06:20:51.000|56=FXCM|57=MINIDEMO|1=Account_Masked|98=0|108=60|141=Y|553=D161620797|554=1234|10=012|
[2024-08-01 14:20:52.041] [fix] [debug] Admin IN  8=FIX.4.4|9=118|35=5|34=16|49=TExecSenderCompID_Masked|50=MINIDEMO|52=20240801-06:20:51.915|56=MD_D161620797_client1|1=Account_Masked|10=072|
[2024-08-01 14:20:52.042] [fix] [debug] Admin OUT 8=FIX.4.4|9=100|35=5|34=5|49=MDataSenderCompID_Masked|52=20240801-06:20:52.000|56=FXCM|57=MINIDEMO|1=Account_Masked|10=008|
