[2024-07-31 15:55:31.517] [fix] [debug] Admin OUT 8=FIX.4.4|9=142|35=A|34=1|49=TExecSenderCompID_Masked|52=20240731-07:55:31.000|56=FXCM|57=MINIDEMO|1=Account_Masked|98=0|108=60|141=Y|553=D161620797|554=1234|10=021|
[2024-07-31 15:55:31.523] [fix] [debug] Admin OUT 8=FIX.4.4|9=142|35=A|34=1|49=MDataSenderCompID_Masked|52=20240731-07:55:31.000|56=FXCM|57=MINIDEMO|1=Account_Masked|98=0|108=60|141=Y|553=D161620797|554=1234|10=003|
[2024-07-31 15:55:31.992] [fix] [debug] Admin IN  8=FIX.4.4|9=132|35=A|34=1|49=TExecSenderCompID_Masked|50=MINIDEMO|52=20240731-07:55:31.930|56=D161620797_client1|1=Account_Masked|98=0|108=60|141=Y|10=121|
[2024-07-31 15:55:32.021] [fix] [debug] Admin IN  8=FIX.4.4|9=135|35=A|34=1|49=TExecSenderCompID_Masked|50=MINIDEMO|52=20240731-07:55:31.972|56=MD_D161620797_client1|1=Account_Masked|98=0|108=60|141=Y|10=114|
[2024-07-31 15:55:32.028] [fix] [debug] App   OUT 8=FIX.4.4|9=193|35=D|34=2|49=TExecSenderCompID_Masked|52=20240731-07:55:32.000|56=FXCM|57=MINIDEMO|1=Account_Masked|11=coid_1722412532023_1|21=1|38=5000|40=1|54=1|55=AUD/USD|59=1|60=20240731-07:55:32|336=FXCM|10=118|
[2024-07-31 15:55:32.341] [fix] [debug] App   IN  8=FIX.4.4|9=499|35=8|34=2|49=TExecSenderCompID_Masked|50=MINIDEMO|52=20240731-07:55:32.298|56=D161620797_client1|1=Account_Masked|6=0.65051|11=coid_1722412532023_1|14=0|15=AUD|17=1722325094580|31=0.65051|32=0|37=321066332|38=5000|39=0|40=1|44=0.65051|54=1|55=AUD/USD|59=1|60=20240731-07:55:32.292|99=0|150=0|151=5000|211=0|336=FXCM|453=1|448=FXCM ID|447=D|452=3|802=4|523=1613144|803=10|523=d161620797|803=2|523=DemoLastName|803=22|523=32|803=26|625=MINIDEMO|835=0|836=0|1094=0|9041=144083393|9050=OM|9051=P|9061=0|10=233|
[2024-07-31 15:55:32.349] [fix] [debug] App   IN  8=FIX.4.4|9=502|35=8|34=3|49=TExecSenderCompID_Masked|50=MINIDEMO|52=20240731-07:55:32.299|56=D161620797_client1|1=Account_Masked|6=0.65051|11=coid_1722412532023_1|14=5000|15=AUD|17=1722325094581|31=0.65051|32=5000|37=321066332|38=5000|39=7|40=1|44=0.65051|54=1|55=AUD/USD|59=1|60=20240731-07:55:32.293|99=0|150=F|151=0|211=0|336=FXCM|453=1|448=FXCM ID|447=D|452=3|802=4|523=1613144|803=10|523=d161620797|803=2|523=DemoLastName|803=22|523=32|803=26|625=MINIDEMO|835=0|836=0|1094=0|9041=144083393|9050=OM|9051=E|9061=0|10=133|
[2024-07-31 15:55:32.534] [fix] [debug] App   IN  8=FIX.4.4|9=502|35=8|34=4|49=TExecSenderCompID_Masked|50=MINIDEMO|52=20240731-07:55:32.488|56=D161620797_client1|1=Account_Masked|6=0.65051|11=coid_1722412532023_1|14=5000|15=AUD|17=5|31=0.65051|32=5000|37=321066332|38=5000|39=2|40=1|44=0.65051|54=1|55=AUD/USD|58=Executed|59=1|60=20240731-07:55:32.485|99=0|150=F|151=0|211=0|336=FXCM|453=1|448=FXCM ID|447=D|452=3|802=4|523=1613144|803=10|523=d161620797|803=2|523=DemoLastName|803=22|523=32|803=26|625=MINIDEMO|835=0|836=0|1094=0|9041=144083393|9050=OM|9051=F|9061=0|10=251|
[2024-07-31 15:55:32.539] [fix] [debug] App   OUT 8=FIX.4.4|9=208|35=D|34=3|49=TExecSenderCompID_Masked|52=20240731-07:55:32.000|56=FXCM|57=MINIDEMO|1=Account_Masked|11=coid_1722412532537_2|21=1|38=5000|40=1|54=2|55=AUD/USD|59=1|60=20240731-07:55:32|336=FXCM|9041=144083393|10=095|
[2024-07-31 15:55:32.944] [fix] [debug] App   IN  8=FIX.4.4|9=499|35=8|34=5|49=TExecSenderCompID_Masked|50=MINIDEMO|52=20240731-07:55:32.772|56=D161620797_client1|1=Account_Masked|6=0.65034|11=coid_1722412532537_2|14=0|15=AUD|17=1722325094582|31=0.65034|32=0|37=321066333|38=5000|39=0|40=1|44=0.65034|54=2|55=AUD/USD|59=1|60=20240731-07:55:32.769|99=0|150=0|151=5000|211=0|336=FXCM|453=1|448=FXCM ID|447=D|452=3|802=4|523=1613144|803=10|523=d161620797|803=2|523=DemoLastName|803=22|523=32|803=26|625=MINIDEMO|835=0|836=0|1094=0|9041=144083393|9050=CM|9051=P|9061=0|10=248|
[2024-07-31 15:55:32.948] [fix] [debug] App   IN  8=FIX.4.4|9=502|35=8|34=6|49=TExecSenderCompID_Masked|50=MINIDEMO|52=20240731-07:55:32.772|56=D161620797_client1|1=Account_Masked|6=0.65034|11=coid_1722412532537_2|14=5000|15=AUD|17=1722325094583|31=0.65034|32=5000|37=321066333|38=5000|39=7|40=1|44=0.65034|54=2|55=AUD/USD|59=1|60=20240731-07:55:32.770|99=0|150=F|151=0|211=0|336=FXCM|453=1|448=FXCM ID|447=D|452=3|802=4|523=1613144|803=10|523=d161620797|803=2|523=DemoLastName|803=22|523=32|803=26|625=MINIDEMO|835=0|836=0|1094=0|9041=144083393|9050=CM|9051=E|9061=0|10=138|
[2024-07-31 15:55:32.954] [fix] [debug] App   IN  8=FIX.4.4|9=502|35=8|34=7|49=TExecSenderCompID_Masked|50=MINIDEMO|52=20240731-07:55:32.867|56=D161620797_client1|1=Account_Masked|6=0.65034|11=coid_1722412532537_2|14=5000|15=AUD|17=5|31=0.65034|32=5000|37=321066333|38=5000|39=2|40=1|44=0.65034|54=2|55=AUD/USD|58=Executed|59=1|60=20240731-07:55:32.864|99=0|150=F|151=0|211=0|336=FXCM|453=1|448=FXCM ID|447=D|452=3|802=4|523=1613144|803=10|523=d161620797|803=2|523=DemoLastName|803=22|523=32|803=26|625=MINIDEMO|835=0|836=0|1094=0|9041=144083393|9050=CM|9051=F|9061=0|10=004|
[2024-07-31 15:55:32.956] [fix] [debug] Admin OUT 8=FIX.4.4|9=100|35=5|34=4|49=TExecSenderCompID_Masked|52=20240731-07:55:32.000|56=FXCM|57=MINIDEMO|1=Account_Masked|10=034|
[2024-07-31 15:55:32.957] [fix] [debug] Admin OUT 8=FIX.4.4|9=100|35=5|34=2|49=MDataSenderCompID_Masked|52=20240731-07:55:32.000|56=FXCM|57=MINIDEMO|1=Account_Masked|10=014|
[2024-07-31 15:55:33.353] [fix] [debug] Admin IN  8=FIX.4.4|9=114|35=5|34=8|49=TExecSenderCompID_Masked|50=MINIDEMO|52=20240731-07:55:33.182|56=D161620797_client1|1=Account_Masked|10=044|
[2024-07-31 15:55:33.354] [fix] [debug] Admin OUT 8=FIX.4.4|9=100|35=5|34=5|49=TExecSenderCompID_Masked|52=20240731-07:55:33.000|56=FXCM|57=MINIDEMO|1=Account_Masked|10=036|
[2024-07-31 15:55:33.362] [fix] [debug] Admin OUT 8=FIX.4.4|9=142|35=A|34=1|49=TExecSenderCompID_Masked|52=20240731-07:55:33.000|56=FXCM|57=MINIDEMO|1=Account_Masked|98=0|108=60|141=Y|553=D161620797|554=1234|10=023|
[2024-07-31 15:55:33.371] [fix] [debug] Admin IN  8=FIX.4.4|9=117|35=5|34=2|49=TExecSenderCompID_Masked|50=MINIDEMO|52=20240731-07:55:33.207|56=MD_D161620797_client1|1=Account_Masked|10=023|
[2024-07-31 15:55:33.372] [fix] [debug] Admin OUT 8=FIX.4.4|9=100|35=5|34=3|49=MDataSenderCompID_Masked|52=20240731-07:55:33.000|56=FXCM|57=MINIDEMO|1=Account_Masked|10=016|
[2024-07-31 15:55:33.379] [fix] [debug] Admin OUT 8=FIX.4.4|9=142|35=A|34=1|49=MDataSenderCompID_Masked|52=20240731-07:55:33.000|56=FXCM|57=MINIDEMO|1=Account_Masked|98=0|108=60|141=Y|553=D161620797|554=1234|10=005|
