[2024-08-01 13:48:25.309] [fix] [debug] Admin OUT 8=FIX.4.4|9=142|35=A|34=1|49=MDataSenderCompID_Masked|52=20240801-05:48:25.000|56=FXCM|57=MINIDEMO|1=Account_Masked|98=0|108=60|141=Y|553=D161620797|554=1234|10=004|
[2024-08-01 13:48:25.317] [fix] [debug] Admin OUT 8=FIX.4.4|9=142|35=A|34=1|49=TExecSenderCompID_Masked|52=20240801-05:48:25.000|56=FXCM|57=MINIDEMO|1=Account_Masked|98=0|108=60|141=Y|553=D161620797|554=1234|10=022|
[2024-08-01 13:48:25.717] [fix] [debug] Admin IN  8=FIX.4.4|9=132|35=A|34=1|49=TExecSenderCompID_Masked|50=MINIDEMO|52=20240801-05:48:25.604|56=D161620797_client1|1=Account_Masked|98=0|108=60|141=Y|10=120|
[2024-08-01 13:48:26.134] [fix] [debug] Admin IN  8=FIX.4.4|9=135|35=A|34=1|49=TExecSenderCompID_Masked|50=MINIDEMO|52=20240801-05:48:26.023|56=MD_D161620797_client1|1=Account_Masked|98=0|108=60|141=Y|10=103|
[2024-08-01 13:48:26.141] [fix] [debug] App   OUT 8=FIX.4.4|9=167|35=V|34=2|49=MDataSenderCompID_Masked|52=20240801-05:48:26.000|56=FXCM|57=MINIDEMO|1=Account_Masked|146=1|55=AUD/USD|262=AUD/USD_1|263=0|264=0|265=0|267=2|269=0|269=1|10=141|
[2024-08-01 13:48:26.507] [fix] [debug] App   IN  8=FIX.4.4|9=525|35=W|34=2|49=TExecSenderCompID_Masked|50=MINIDEMO|52=20240801-05:48:26.392|56=MD_D161620797_client1|1=Account_Masked|55=AUD/USD|228=1|231=1|262=AUD/USD_1|268=4|269=0|270=0.65283|271=0|272=20240801|273=05:48:26.000|336=FXCM|625=MINIDEMO|276=A|282=PSFX_DESK|299=FXCM-AUDUSD-7063955|537=1|269=1|270=0.65302|271=0|272=20240801|273=05:48:26.000|336=FXCM|625=MINIDEMO|276=A|282=PSFX_DESK|299=FXCM-AUDUSD-7063955|537=1|269=7|270=0.65516|269=8|270=0.65229|460=4|9001=5|9002=0.0001|9005=1350|9020=2|9080=1|9094=50000000|9095=1|9096=O|10=081|
[2024-08-01 13:48:34.544] [fix] [debug] Admin OUT 8=FIX.4.4|9=100|35=5|34=2|49=TExecSenderCompID_Masked|52=20240801-05:48:34.000|56=FXCM|57=MINIDEMO|1=Account_Masked|10=032|
[2024-08-01 13:48:34.545] [fix] [debug] Admin OUT 8=FIX.4.4|9=100|35=5|34=3|49=MDataSenderCompID_Masked|52=20240801-05:48:34.000|56=FXCM|57=MINIDEMO|1=Account_Masked|10=015|
[2024-08-01 13:48:35.028] [fix] [debug] Admin IN  8=FIX.4.4|9=114|35=5|34=2|49=TExecSenderCompID_Masked|50=MINIDEMO|52=20240801-05:48:34.731|56=D161620797_client1|1=Account_Masked|10=037|
[2024-08-01 13:48:35.029] [fix] [debug] Admin OUT 8=FIX.4.4|9=100|35=5|34=3|49=TExecSenderCompID_Masked|52=20240801-05:48:35.000|56=FXCM|57=MINIDEMO|1=Account_Masked|10=034|
[2024-08-01 13:48:35.044] [fix] [debug] Admin OUT 8=FIX.4.4|9=142|35=A|34=1|49=TExecSenderCompID_Masked|52=20240801-05:48:35.000|56=FXCM|57=MINIDEMO|1=Account_Masked|98=0|108=60|141=Y|553=D161620797|554=1234|10=023|
[2024-08-01 13:48:35.051] [fix] [debug] Admin IN  8=FIX.4.4|9=117|35=5|34=3|49=TExecSenderCompID_Masked|50=MINIDEMO|52=20240801-05:48:34.870|56=MD_D161620797_client1|1=Account_Masked|10=029|
[2024-08-01 13:48:35.052] [fix] [debug] Admin OUT 8=FIX.4.4|9=100|35=5|34=4|49=MDataSenderCompID_Masked|52=20240801-05:48:35.000|56=FXCM|57=MINIDEMO|1=Account_Masked|10=017|
[2024-08-01 13:48:35.060] [fix] [debug] Admin OUT 8=FIX.4.4|9=142|35=A|34=1|49=MDataSenderCompID_Masked|52=20240801-05:48:35.000|56=FXCM|57=MINIDEMO|1=Account_Masked|98=0|108=60|141=Y|553=D161620797|554=1234|10=005|
