[2024-07-31 15:58:45.967] [fix] [debug] Admin OUT 8=FIX.4.4|9=142|35=A|34=1|49=MDataSenderCompID_Masked|52=20240731-07:58:45.000|56=FXCM|57=MINIDEMO|1=Account_Masked|98=0|108=60|141=Y|553=D161620797|554=1234|10=011|
[2024-07-31 15:58:45.973] [fix] [debug] Admin OUT 8=FIX.4.4|9=142|35=A|34=1|49=TExecSenderCompID_Masked|52=20240731-07:58:45.000|56=FXCM|57=MINIDEMO|1=Account_Masked|98=0|108=60|141=Y|553=D161620797|554=1234|10=029|
[2024-07-31 15:58:46.691] [fix] [debug] Admin IN  8=FIX.4.4|9=132|35=A|34=1|49=TExecSenderCompID_Masked|50=MINIDEMO|52=20240731-07:58:46.450|56=D161620797_client1|1=Account_Masked|98=0|108=60|141=Y|10=127|
[2024-07-31 15:58:46.701] [fix] [debug] Admin IN  8=FIX.4.4|9=135|35=A|34=1|49=TExecSenderCompID_Masked|50=MINIDEMO|52=20240731-07:58:46.529|56=MD_D161620797_client1|1=Account_Masked|98=0|108=60|141=Y|10=121|
[2024-07-31 15:58:46.707] [fix] [debug] App   OUT 8=FIX.4.4|9=201|35=D|34=2|49=TExecSenderCompID_Masked|52=20240731-07:58:46.000|56=FXCM|57=MINIDEMO|1=Account_Masked|11=coid_1722412726702_1|21=1|38=8000|40=2|44=0.69|54=2|55=AUD/USD|59=1|60=20240731-07:58:46|336=FXCM|10=253|
[2024-07-31 15:58:47.101] [fix] [debug] App   IN  8=FIX.4.4|9=490|35=8|34=2|49=TExecSenderCompID_Masked|50=MINIDEMO|52=20240731-07:58:46.935|56=D161620797_client1|1=Account_Masked|6=0.69|11=coid_1722412726702_1|14=0|15=AUD|17=1722325094601|31=0.69|32=0|37=321066341|38=8000|39=0|40=2|44=0.69|54=2|55=AUD/USD|59=1|60=20240731-07:58:46.933|99=0|150=0|151=8000|211=0|336=FXCM|453=1|448=FXCM ID|447=D|452=3|802=4|523=1613144|803=10|523=d161620797|803=2|523=DemoLastName|803=22|523=32|803=26|625=MINIDEMO|835=0|836=0|1094=0|9041=144083399|9050=LE|9051=W|9061=0|10=071|
[2024-07-31 15:58:47.109] [fix] [debug] App   OUT 8=FIX.4.4|9=244|35=G|34=3|49=TExecSenderCompID_Masked|52=20240731-07:58:47.000|56=FXCM|57=MINIDEMO|1=Account_Masked|11=coid_1722412727106_2|21=1|37=321066341|38=6000|40=2|41=coid_1722412726702_1|44=0.69|54=2|55=AUD/USD|59=1|60=20240731-07:58:47|9041=144083399|10=035|
[2024-07-31 15:58:47.610] [fix] [debug] App   IN  8=FIX.4.4|9=502|35=8|34=3|49=TExecSenderCompID_Masked|50=MINIDEMO|52=20240731-07:58:47.392|56=D161620797_client1|1=Account_Masked|6=0.69|11=coid_1722412727106_2|14=0|15=AUD|17=3|31=0.69|32=0|37=321066341|38=6000|39=5|40=2|41=coid_1722412726702_1|44=0.69|54=2|55=AUD/USD|59=1|60=20240731-07:58:47.390|99=0|150=5|151=6000|211=0|336=FXCM|453=1|448=FXCM ID|447=D|452=3|802=4|523=1613144|803=10|523=d161620797|803=2|523=DemoLastName|803=22|523=32|803=26|625=MINIDEMO|835=0|836=0|1094=0|9041=144083399|9050=LE|9051=W|9061=0|10=169|
[2024-07-31 15:58:47.614] [fix] [debug] App   OUT 8=FIX.4.4|9=244|35=G|34=4|49=TExecSenderCompID_Masked|52=20240731-07:58:47.000|56=FXCM|57=MINIDEMO|1=Account_Masked|11=coid_1722412727612_3|21=1|37=321066341|38=4000|40=2|41=coid_1722412726702_1|44=0.69|54=2|55=AUD/USD|59=1|60=20240731-07:58:47|9041=144083399|10=037|
[2024-07-31 15:58:47.917] [fix] [debug] App   IN  8=FIX.4.4|9=502|35=8|34=4|49=TExecSenderCompID_Masked|50=MINIDEMO|52=20240731-07:58:47.862|56=D161620797_client1|1=Account_Masked|6=0.69|11=coid_1722412727612_3|14=0|15=AUD|17=4|31=0.69|32=0|37=321066341|38=4000|39=5|40=2|41=coid_1722412727106_2|44=0.69|54=2|55=AUD/USD|59=1|60=20240731-07:58:47.860|99=0|150=5|151=4000|211=0|336=FXCM|453=1|448=FXCM ID|447=D|452=3|802=4|523=1613144|803=10|523=d161620797|803=2|523=DemoLastName|803=22|523=32|803=26|625=MINIDEMO|835=0|836=0|1094=0|9041=144083399|9050=LE|9051=W|9061=0|10=174|
[2024-07-31 15:58:47.921] [fix] [debug] App   OUT 8=FIX.4.4|9=221|35=F|34=5|49=TExecSenderCompID_Masked|52=20240731-07:58:47.000|56=FXCM|57=MINIDEMO|1=Account_Masked|11=coid_1722412727919_4|37=321066341|38=4000|41=coid_1722412727612_3|54=2|55=AUD/USD|60=20240731-07:58:47|9041=144083399|10=056|
[2024-07-31 15:58:48.218] [fix] [debug] App   IN  8=FIX.4.4|9=502|35=8|34=5|49=TExecSenderCompID_Masked|50=MINIDEMO|52=20240731-07:58:48.165|56=D161620797_client1|1=Account_Masked|6=0.69|11=coid_1722412727919_4|14=0|15=AUD|17=5|31=0.69|32=0|37=321066341|38=4000|39=6|40=2|41=coid_1722412727612_3|44=0.69|54=2|55=AUD/USD|59=1|60=20240731-07:58:48.162|99=0|150=6|151=4000|211=0|336=FXCM|453=1|448=FXCM ID|447=D|452=3|802=4|523=1613144|803=10|523=d161620797|803=2|523=DemoLastName|803=22|523=32|803=26|625=MINIDEMO|835=0|836=0|1094=0|9041=144083399|9050=LE|9051=S|9061=0|10=181|
[2024-07-31 15:58:48.224] [fix] [debug] App   IN  8=FIX.4.4|9=512|35=8|34=6|49=TExecSenderCompID_Masked|50=MINIDEMO|52=20240731-07:58:48.165|56=D161620797_client1|1=Account_Masked|6=0.69|11=coid_1722412727919_4|14=0|15=AUD|17=6|31=0.69|32=0|37=321066341|38=4000|39=4|40=2|41=coid_1722412727612_3|44=0.69|54=2|55=AUD/USD|58=Cancelled|59=1|60=20240731-07:58:48.163|99=0|150=4|151=0|211=0|336=FXCM|453=1|448=FXCM ID|447=D|452=3|802=4|523=1613144|803=10|523=d161620797|803=2|523=DemoLastName|803=22|523=32|803=26|625=MINIDEMO|835=0|836=0|1094=0|9041=144083399|9050=LE|9051=C|9061=0|10=055|
[2024-07-31 15:58:48.226] [fix] [debug] Admin OUT 8=FIX.4.4|9=100|35=5|34=6|49=TExecSenderCompID_Masked|52=20240731-07:58:48.000|56=FXCM|57=MINIDEMO|1=Account_Masked|10=046|
[2024-07-31 15:58:48.227] [fix] [debug] Admin OUT 8=FIX.4.4|9=100|35=5|34=2|49=MDataSenderCompID_Masked|52=20240731-07:58:48.000|56=FXCM|57=MINIDEMO|1=Account_Masked|10=024|
[2024-07-31 15:58:48.509] [fix] [debug] Admin IN  8=FIX.4.4|9=117|35=5|34=2|49=TExecSenderCompID_Masked|50=MINIDEMO|52=20240731-07:58:48.448|56=MD_D161620797_client1|1=Account_Masked|10=039|
[2024-07-31 15:58:48.511] [fix] [debug] Admin OUT 8=FIX.4.4|9=100|35=5|34=3|49=MDataSenderCompID_Masked|52=20240731-07:58:48.000|56=FXCM|57=MINIDEMO|1=Account_Masked|10=025|
[2024-07-31 15:58:48.519] [fix] [debug] Admin OUT 8=FIX.4.4|9=142|35=A|34=1|49=MDataSenderCompID_Masked|52=20240731-07:58:48.000|56=FXCM|57=MINIDEMO|1=Account_Masked|98=0|108=60|141=Y|553=D161620797|554=1234|10=014|
[2024-07-31 15:58:48.524] [fix] [debug] Admin IN  8=FIX.4.4|9=114|35=5|34=7|49=TExecSenderCompID_Masked|50=MINIDEMO|52=20240731-07:58:48.447|56=D161620797_client1|1=Account_Masked|10=056|
[2024-07-31 15:58:48.525] [fix] [debug] Admin OUT 8=FIX.4.4|9=100|35=5|34=7|49=TExecSenderCompID_Masked|52=20240731-07:58:48.000|56=FXCM|57=MINIDEMO|1=Account_Masked|10=047|
[2024-07-31 15:58:48.532] [fix] [debug] Admin OUT 8=FIX.4.4|9=142|35=A|34=1|49=TExecSenderCompID_Masked|52=20240731-07:58:48.000|56=FXCM|57=MINIDEMO|1=Account_Masked|98=0|108=60|141=Y|553=D161620797|554=1234|10=032|
