[2024-07-31 15:32:32.479] [fix] [debug] Admin OUT 8=FIX.4.4|9=142|35=A|34=1|49=MDataSenderCompID_Masked|52=20240731-07:32:32.000|56=FXCM|57=MINIDEMO|1=Account_Masked|98=0|108=60|141=Y|553=D161620797|554=1234|10=255|
[2024-07-31 15:32:32.483] [fix] [debug] Admin OUT 8=FIX.4.4|9=142|35=A|34=1|49=TExecSenderCompID_Masked|52=20240731-07:32:32.000|56=FXCM|57=MINIDEMO|1=Account_Masked|98=0|108=60|141=Y|553=D161620797|554=1234|10=017|
[2024-07-31 15:32:32.986] [fix] [debug] Admin IN  8=FIX.4.4|9=132|35=A|34=1|49=TExecSenderCompID_Masked|50=MINIDEMO|52=20240731-07:32:32.755|56=D161620797_client1|1=Account_Masked|98=0|108=60|141=Y|10=122|
[2024-07-31 15:32:33.067] [fix] [debug] Admin IN  8=FIX.4.4|9=135|35=A|34=1|49=TExecSenderCompID_Masked|50=MINIDEMO|52=20240731-07:32:32.932|56=MD_D161620797_client1|1=Account_Masked|98=0|108=60|141=Y|10=106|
[2024-07-31 15:32:33.072] [fix] [debug] App   OUT 8=FIX.4.4|9=122|35=BB|34=2|49=TExecSenderCompID_Masked|52=20240731-07:32:33.000|56=FXCM|57=MINIDEMO|1=Account_Masked|263=1|336=FXCM|909=1|10=146|
[2024-07-31 15:32:33.399] [fix] [debug] App   IN  8=FIX.4.4|9=191|35=BG|34=2|49=TExecSenderCompID_Masked|50=MINIDEMO|52=20240731-07:32:33.234|56=D161620797_client1|1=Account_Masked|336=FXCM|453=1|448=FXCM ID|447=D|452=3|625=MINIDEMO|909=1|911=1|945=2|946=0|10=220|
[2024-07-31 15:32:33.404] [fix] [debug] App   IN  8=FIX.4.4|9=384|35=BA|34=3|49=TExecSenderCompID_Masked|50=MINIDEMO|52=20240731-07:32:33.235|56=D161620797_client1|1=Account_Masked|53=1000|336=FXCM|453=1|448=FXCM ID|447=D|452=3|802=5|523=1613144|803=10|523=d161620797|803=2|523=DemoLastName|803=22|523=32|803=26|523=Y|803=4000|625=MINIDEMO|898=0|901=499981.79|908=305|909=1|910=0|911=1|912=Y|921=499655.71|922=499981.79|9038=32|9045=N|9046=32|9047=0|10=071|
[2024-07-31 15:32:33.416] [fix] [debug] Admin OUT 8=FIX.4.4|9=100|35=5|34=3|49=TExecSenderCompID_Masked|52=20240731-07:32:33.000|56=FXCM|57=MINIDEMO|1=Account_Masked|10=029|
[2024-07-31 15:32:33.416] [fix] [debug] Admin OUT 8=FIX.4.4|9=100|35=5|34=2|49=MDataSenderCompID_Masked|52=20240731-07:32:33.000|56=FXCM|57=MINIDEMO|1=Account_Masked|10=010|
[2024-07-31 15:32:33.670] [fix] [debug] Admin IN  8=FIX.4.4|9=114|35=5|34=4|49=TExecSenderCompID_Masked|50=MINIDEMO|52=20240731-07:32:33.527|56=D161620797_client1|1=Account_Masked|10=038|
[2024-07-31 15:32:33.672] [fix] [debug] Admin OUT 8=FIX.4.4|9=100|35=5|34=4|49=TExecSenderCompID_Masked|52=20240731-07:32:33.000|56=FXCM|57=MINIDEMO|1=Account_Masked|10=030|
[2024-07-31 15:32:33.682] [fix] [debug] Admin OUT 8=FIX.4.4|9=142|35=A|34=1|49=TExecSenderCompID_Masked|52=20240731-07:32:33.000|56=FXCM|57=MINIDEMO|1=Account_Masked|98=0|108=60|141=Y|553=D161620797|554=1234|10=018|
[2024-07-31 15:32:33.689] [fix] [debug] Admin IN  8=FIX.4.4|9=117|35=5|34=2|49=TExecSenderCompID_Masked|50=MINIDEMO|52=20240731-07:32:33.528|56=MD_D161620797_client1|1=Account_Masked|10=024|
[2024-07-31 15:32:33.692] [fix] [debug] Admin OUT 8=FIX.4.4|9=100|35=5|34=3|49=MDataSenderCompID_Masked|52=20240731-07:32:33.000|56=FXCM|57=MINIDEMO|1=Account_Masked|10=011|
[2024-07-31 15:32:33.711] [fix] [debug] Admin OUT 8=FIX.4.4|9=142|35=A|34=1|49=MDataSenderCompID_Masked|52=20240731-07:32:33.000|56=FXCM|57=MINIDEMO|1=Account_Masked|98=0|108=60|141=Y|553=D161620797|554=1234|10=000|
